{
  "_format": "hh-sol-artifact-1",
  "contractName": "RandomSVG",
  "sourceName": "contracts/RandomSVG.sol",
  "abi": [
    {
      "inputs": [
        {
          "internalType": "address",
          "name": "_VRFCoordinator",
          "type": "address"
        },
        {
          "internalType": "address",
          "name": "_LinkToken",
          "type": "address"
        },
        {
          "internalType": "bytes32",
          "name": "_keyhash",
          "type": "bytes32"
        },
        {
          "internalType": "uint256",
          "name": "_fee",
          "type": "uint256"
        }
      ],
      "stateMutability": "nonpayable",
      "type": "constructor"
    },
    {
      "anonymous": false,
      "inputs": [
        {
          "indexed": true,
          "internalType": "address",
          "name": "owner",
          "type": "address"
        },
        {
          "indexed": true,
          "internalType": "address",
          "name": "approved",
          "type": "address"
        },
        {
          "indexed": true,
          "internalType": "uint256",
          "name": "tokenId",
          "type": "uint256"
        }
      ],
      "name": "Approval",
      "type": "event"
    },
    {
      "anonymous": false,
      "inputs": [
        {
          "indexed": true,
          "internalType": "address",
          "name": "owner",
          "type": "address"
        },
        {
          "indexed": true,
          "internalType": "address",
          "name": "operator",
          "type": "address"
        },
        {
          "indexed": false,
          "internalType": "bool",
          "name": "approved",
          "type": "bool"
        }
      ],
      "name": "ApprovalForAll",
      "type": "event"
    },
    {
      "anonymous": false,
      "inputs": [
        {
          "indexed": true,
          "internalType": "uint256",
          "name": "tokenId",
          "type": "uint256"
        },
        {
          "indexed": false,
          "internalType": "string",
          "name": "tokenURI",
          "type": "string"
        }
      ],
      "name": "CreatedRandomSVG",
      "type": "event"
    },
    {
      "anonymous": false,
      "inputs": [
        {
          "indexed": true,
          "internalType": "uint256",
          "name": "randomNumber",
          "type": "uint256"
        }
      ],
      "name": "CreatedUnfinishedRandomSVG",
      "type": "event"
    },
    {
      "anonymous": false,
      "inputs": [
        {
          "indexed": true,
          "internalType": "address",
          "name": "previousOwner",
          "type": "address"
        },
        {
          "indexed": true,
          "internalType": "address",
          "name": "newOwner",
          "type": "address"
        }
      ],
      "name": "OwnershipTransferred",
      "type": "event"
    },
    {
      "anonymous": false,
      "inputs": [
        {
          "indexed": true,
          "internalType": "address",
          "name": "from",
          "type": "address"
        },
        {
          "indexed": true,
          "internalType": "address",
          "name": "to",
          "type": "address"
        },
        {
          "indexed": true,
          "internalType": "uint256",
          "name": "tokenId",
          "type": "uint256"
        }
      ],
      "name": "Transfer",
      "type": "event"
    },
    {
      "anonymous": false,
      "inputs": [
        {
          "indexed": true,
          "internalType": "bytes32",
          "name": "requestId",
          "type": "bytes32"
        },
        {
          "indexed": true,
          "internalType": "uint256",
          "name": "tokenId",
          "type": "uint256"
        }
      ],
      "name": "requestedRandomSVG",
      "type": "event"
    },
    {
      "inputs": [
        {
          "internalType": "address",
          "name": "to",
          "type": "address"
        },
        {
          "internalType": "uint256",
          "name": "tokenId",
          "type": "uint256"
        }
      ],
      "name": "approve",
      "outputs": [],
      "stateMutability": "nonpayable",
      "type": "function"
    },
    {
      "inputs": [
        {
          "internalType": "address",
          "name": "owner",
          "type": "address"
        }
      ],
      "name": "balanceOf",
      "outputs": [
        {
          "internalType": "uint256",
          "name": "",
          "type": "uint256"
        }
      ],
      "stateMutability": "view",
      "type": "function"
    },
    {
      "inputs": [
        {
          "internalType": "bytes32",
          "name": "_bytes32",
          "type": "bytes32"
        }
      ],
      "name": "bytes32ToString",
      "outputs": [
        {
          "internalType": "string",
          "name": "",
          "type": "string"
        }
      ],
      "stateMutability": "pure",
      "type": "function"
    },
    {
      "inputs": [
        {
          "internalType": "uint256",
          "name": "rep",
          "type": "uint256"
        }
      ],
      "name": "create",
      "outputs": [
        {
          "internalType": "bytes32",
          "name": "requestId",
          "type": "bytes32"
        }
      ],
      "stateMutability": "nonpayable",
      "type": "function"
    },
    {
      "inputs": [
        {
          "internalType": "uint256",
          "name": "tokenId",
          "type": "uint256"
        }
      ],
      "name": "finishMint",
      "outputs": [],
      "stateMutability": "nonpayable",
      "type": "function"
    },
    {
      "inputs": [
        {
          "internalType": "string",
          "name": "imageURI",
          "type": "string"
        }
      ],
      "name": "formatTokenURI",
      "outputs": [
        {
          "internalType": "string",
          "name": "",
          "type": "string"
        }
      ],
      "stateMutability": "pure",
      "type": "function"
    },
    {
      "inputs": [
        {
          "internalType": "uint256",
          "name": "_randomness",
          "type": "uint256"
        },
        {
          "internalType": "uint256",
          "name": "lineColor",
          "type": "uint256"
        },
        {
          "internalType": "uint256",
          "name": "lineWidth",
          "type": "uint256"
        },
        {
          "internalType": "uint256",
          "name": "lineBrightness",
          "type": "uint256"
        }
      ],
      "name": "generatePath",
      "outputs": [
        {
          "internalType": "string",
          "name": "pathSvg",
          "type": "string"
        }
      ],
      "stateMutability": "nonpayable",
      "type": "function"
    },
    {
      "inputs": [
        {
          "internalType": "uint256",
          "name": "_randomness",
          "type": "uint256"
        }
      ],
      "name": "generatePathCommand",
      "outputs": [
        {
          "internalType": "string",
          "name": "pathCommand",
          "type": "string"
        }
      ],
      "stateMutability": "nonpayable",
      "type": "function"
    },
    {
      "inputs": [
        {
          "internalType": "uint256",
          "name": "_randomness",
          "type": "uint256"
        }
      ],
      "name": "generateSVG",
      "outputs": [
        {
          "internalType": "string",
          "name": "finalSvg",
          "type": "string"
        }
      ],
      "stateMutability": "nonpayable",
      "type": "function"
    },
    {
      "inputs": [
        {
          "internalType": "uint256",
          "name": "tokenId",
          "type": "uint256"
        }
      ],
      "name": "getApproved",
      "outputs": [
        {
          "internalType": "address",
          "name": "",
          "type": "address"
        }
      ],
      "stateMutability": "view",
      "type": "function"
    },
    {
      "inputs": [
        {
          "internalType": "address",
          "name": "owner",
          "type": "address"
        },
        {
          "internalType": "address",
          "name": "operator",
          "type": "address"
        }
      ],
      "name": "isApprovedForAll",
      "outputs": [
        {
          "internalType": "bool",
          "name": "",
          "type": "bool"
        }
      ],
      "stateMutability": "view",
      "type": "function"
    },
    {
      "inputs": [],
      "name": "maxNumberOfPathCommands",
      "outputs": [
        {
          "internalType": "uint256",
          "name": "",
          "type": "uint256"
        }
      ],
      "stateMutability": "view",
      "type": "function"
    },
    {
      "inputs": [
        {
          "internalType": "uint256",
          "name": "tokenId",
          "type": "uint256"
        },
        {
          "internalType": "address",
          "name": "NFTowner",
          "type": "address"
        },
        {
          "internalType": "uint256",
          "name": "delta",
          "type": "uint256"
        }
      ],
      "name": "mintNft",
      "outputs": [],
      "stateMutability": "nonpayable",
      "type": "function"
    },
    {
      "inputs": [],
      "name": "name",
      "outputs": [
        {
          "internalType": "string",
          "name": "",
          "type": "string"
        }
      ],
      "stateMutability": "view",
      "type": "function"
    },
    {
      "inputs": [],
      "name": "owner",
      "outputs": [
        {
          "internalType": "address",
          "name": "",
          "type": "address"
        }
      ],
      "stateMutability": "view",
      "type": "function"
    },
    {
      "inputs": [
        {
          "internalType": "uint256",
          "name": "tokenId",
          "type": "uint256"
        }
      ],
      "name": "ownerOf",
      "outputs": [
        {
          "internalType": "address",
          "name": "",
          "type": "address"
        }
      ],
      "stateMutability": "view",
      "type": "function"
    },
    {
      "inputs": [],
      "name": "rand",
      "outputs": [
        {
          "internalType": "uint256",
          "name": "",
          "type": "uint256"
        }
      ],
      "stateMutability": "view",
      "type": "function"
    },
    {
      "inputs": [
        {
          "internalType": "bytes32",
          "name": "requestId",
          "type": "bytes32"
        },
        {
          "internalType": "uint256",
          "name": "randomness",
          "type": "uint256"
        }
      ],
      "name": "rawFulfillRandomness",
      "outputs": [],
      "stateMutability": "nonpayable",
      "type": "function"
    },
    {
      "inputs": [],
      "name": "renounceOwnership",
      "outputs": [],
      "stateMutability": "nonpayable",
      "type": "function"
    },
    {
      "inputs": [
        {
          "internalType": "bytes32",
          "name": "",
          "type": "bytes32"
        }
      ],
      "name": "requestIdToSender",
      "outputs": [
        {
          "internalType": "address",
          "name": "",
          "type": "address"
        }
      ],
      "stateMutability": "view",
      "type": "function"
    },
    {
      "inputs": [
        {
          "internalType": "bytes32",
          "name": "",
          "type": "bytes32"
        }
      ],
      "name": "requestIdToTokenId",
      "outputs": [
        {
          "internalType": "uint256",
          "name": "",
          "type": "uint256"
        }
      ],
      "stateMutability": "view",
      "type": "function"
    },
    {
      "inputs": [
        {
          "internalType": "address",
          "name": "from",
          "type": "address"
        },
        {
          "internalType": "address",
          "name": "to",
          "type": "address"
        },
        {
          "internalType": "uint256",
          "name": "tokenId",
          "type": "uint256"
        }
      ],
      "name": "safeTransferFrom",
      "outputs": [],
      "stateMutability": "nonpayable",
      "type": "function"
    },
    {
      "inputs": [
        {
          "internalType": "address",
          "name": "from",
          "type": "address"
        },
        {
          "internalType": "address",
          "name": "to",
          "type": "address"
        },
        {
          "internalType": "uint256",
          "name": "tokenId",
          "type": "uint256"
        },
        {
          "internalType": "bytes",
          "name": "_data",
          "type": "bytes"
        }
      ],
      "name": "safeTransferFrom",
      "outputs": [],
      "stateMutability": "nonpayable",
      "type": "function"
    },
    {
      "inputs": [
        {
          "internalType": "address",
          "name": "operator",
          "type": "address"
        },
        {
          "internalType": "bool",
          "name": "approved",
          "type": "bool"
        }
      ],
      "name": "setApprovalForAll",
      "outputs": [],
      "stateMutability": "nonpayable",
      "type": "function"
    },
    {
      "inputs": [],
      "name": "size",
      "outputs": [
        {
          "internalType": "uint256",
          "name": "",
          "type": "uint256"
        }
      ],
      "stateMutability": "view",
      "type": "function"
    },
    {
      "inputs": [],
      "name": "startx",
      "outputs": [
        {
          "internalType": "uint256",
          "name": "",
          "type": "uint256"
        }
      ],
      "stateMutability": "view",
      "type": "function"
    },
    {
      "inputs": [],
      "name": "starty",
      "outputs": [
        {
          "internalType": "uint256",
          "name": "",
          "type": "uint256"
        }
      ],
      "stateMutability": "view",
      "type": "function"
    },
    {
      "inputs": [
        {
          "internalType": "bytes4",
          "name": "interfaceId",
          "type": "bytes4"
        }
      ],
      "name": "supportsInterface",
      "outputs": [
        {
          "internalType": "bool",
          "name": "",
          "type": "bool"
        }
      ],
      "stateMutability": "view",
      "type": "function"
    },
    {
      "inputs": [
        {
          "internalType": "string",
          "name": "svg",
          "type": "string"
        }
      ],
      "name": "svgToImageURI",
      "outputs": [
        {
          "internalType": "string",
          "name": "",
          "type": "string"
        }
      ],
      "stateMutability": "pure",
      "type": "function"
    },
    {
      "inputs": [],
      "name": "symbol",
      "outputs": [
        {
          "internalType": "string",
          "name": "",
          "type": "string"
        }
      ],
      "stateMutability": "view",
      "type": "function"
    },
    {
      "inputs": [],
      "name": "tokenCounter",
      "outputs": [
        {
          "internalType": "uint256",
          "name": "",
          "type": "uint256"
        }
      ],
      "stateMutability": "view",
      "type": "function"
    },
    {
      "inputs": [
        {
          "internalType": "uint256",
          "name": "",
          "type": "uint256"
        }
      ],
      "name": "tokenIdToRandomNumber",
      "outputs": [
        {
          "internalType": "uint256",
          "name": "",
          "type": "uint256"
        }
      ],
      "stateMutability": "view",
      "type": "function"
    },
    {
      "inputs": [
        {
          "internalType": "uint256",
          "name": "tokenId",
          "type": "uint256"
        }
      ],
      "name": "tokenURI",
      "outputs": [
        {
          "internalType": "string",
          "name": "",
          "type": "string"
        }
      ],
      "stateMutability": "view",
      "type": "function"
    },
    {
      "inputs": [
        {
          "internalType": "address",
          "name": "from",
          "type": "address"
        },
        {
          "internalType": "address",
          "name": "to",
          "type": "address"
        },
        {
          "internalType": "uint256",
          "name": "tokenId",
          "type": "uint256"
        }
      ],
      "name": "transferFrom",
      "outputs": [],
      "stateMutability": "nonpayable",
      "type": "function"
    },
    {
      "inputs": [
        {
          "internalType": "address",
          "name": "newOwner",
          "type": "address"
        }
      ],
      "name": "transferOwnership",
      "outputs": [],
      "stateMutability": "nonpayable",
      "type": "function"
    },
    {
      "inputs": [],
      "name": "withdraw",
      "outputs": [],
      "stateMutability": "payable",
      "type": "function"
    }
  ],
  "bytecode": "0x60c0604052600060115560006012553480156200001b57600080fd5b50604051620056663803806200566683398181016040528101906200004191906200035f565b83836040518060400160405280601681526020017f52616e646f6d5f4f6e436861696e5f6172745f535647000000000000000000008152506040518060400160405280600481526020017f524f4153000000000000000000000000000000000000000000000000000000008152508160009080519060200190620000c79291906200026a565b508060019080519060200190620000e09291906200026a565b5050508173ffffffffffffffffffffffffffffffffffffffff1660a08173ffffffffffffffffffffffffffffffffffffffff1660601b815250508073ffffffffffffffffffffffffffffffffffffffff1660808173ffffffffffffffffffffffffffffffffffffffff1660601b81525050505062000173620001676200019c60201b60201c565b620001a460201b60201c565b600060098190555081600d8190555080600e819055506101f460108190555050505050620004c6565b600033905090565b6000600860009054906101000a900473ffffffffffffffffffffffffffffffffffffffff16905081600860006101000a81548173ffffffffffffffffffffffffffffffffffffffff021916908373ffffffffffffffffffffffffffffffffffffffff1602179055508173ffffffffffffffffffffffffffffffffffffffff168173ffffffffffffffffffffffffffffffffffffffff167f8be0079c531659141344cd1fd0a4f28419497f9722a3daafe3b4186f6b6457e060405160405180910390a35050565b828054620002789062000413565b90600052602060002090601f0160209004810192826200029c5760008555620002e8565b82601f10620002b757805160ff1916838001178555620002e8565b82800160010185558215620002e8579182015b82811115620002e7578251825591602001919060010190620002ca565b5b509050620002f79190620002fb565b5090565b5b8082111562000316576000816000905550600101620002fc565b5090565b6000815190506200032b8162000478565b92915050565b600081519050620003428162000492565b92915050565b6000815190506200035981620004ac565b92915050565b600080600080608085870312156200037657600080fd5b600062000386878288016200031a565b945050602062000399878288016200031a565b9350506040620003ac8782880162000331565b9250506060620003bf8782880162000348565b91505092959194509250565b6000620003d882620003e9565b9050919050565b6000819050919050565b600073ffffffffffffffffffffffffffffffffffffffff82169050919050565b6000819050919050565b600060028204905060018216806200042c57607f821691505b6020821081141562000443576200044262000449565b5b50919050565b7f4e487b7100000000000000000000000000000000000000000000000000000000600052602260045260246000fd5b6200048381620003cb565b81146200048f57600080fd5b50565b6200049d81620003df565b8114620004a957600080fd5b50565b620004b78162000409565b8114620004c357600080fd5b50565b60805160601c60a05160601c61516d620004f96000396000818161172101526128c60152600061288a015261516d6000f3fe60806040526004361061020f5760003560e01c8063715018a6116101185780639c1cd795116100a0578063c87b56dd1161006f578063c87b56dd146107ee578063d082e3811461082b578063e985e9c514610856578063ee2c0de114610893578063f2fde38b146108d05761020f565b80639c1cd79514610722578063a22cb4651461075f578063b88d4fde14610788578063c68b49d1146107b15761020f565b80639201de55116100e75780639201de551461063d57806394985ddd1461067a578063949d225d146106a357806395d89b41146106ce57806396ab71e7146106f95761020f565b8063715018a61461058157806371aee19314610598578063780900dc146105d55780638da5cb5b146106125761020f565b806330d871c61161019b57806348e896ab1161016a57806348e896ab14610476578063624194c7146104a15780636352211e146104ca5780636dcee4ca1461050757806370a08231146105445761020f565b806330d871c6146103db5780633b3dca76146104185780633ccfd60b1461044357806342842e0e1461044d5761020f565b8063163d2537116101e2578063163d2537146102e257806318efbd691461030d578063219c0eee1461033857806322881f881461037557806323b872dd146103b25761020f565b806301ffc9a71461021457806306fdde0314610251578063081812fc1461027c578063095ea7b3146102b9575b600080fd5b34801561022057600080fd5b5061023b600480360381019061023691906136c7565b6108f9565b6040516102489190614816565b60405180910390f35b34801561025d57600080fd5b506102666109db565b60405161027391906148ba565b60405180910390f35b34801561028857600080fd5b506102a3600480360381019061029e919061375a565b610a6d565b6040516102b09190614771565b60405180910390f35b3480156102c557600080fd5b506102e060048036038101906102db91906135fd565b610af2565b005b3480156102ee57600080fd5b506102f7610c0a565b6040516103049190614b9c565b60405180910390f35b34801561031957600080fd5b50610322610c10565b60405161032f9190614b9c565b60405180910390f35b34801561034457600080fd5b5061035f600480360381019061035a9190613662565b610c16565b60405161036c9190614771565b60405180910390f35b34801561038157600080fd5b5061039c60048036038101906103979190613662565b610c49565b6040516103a99190614b9c565b60405180910390f35b3480156103be57600080fd5b506103d960048036038101906103d491906134f7565b610c61565b005b3480156103e757600080fd5b5061040260048036038101906103fd9190613719565b610cc1565b60405161040f91906148ba565b60405180910390f35b34801561042457600080fd5b5061042d610d54565b60405161043a9190614b9c565b60405180910390f35b61044b610d5a565b005b34801561045957600080fd5b50610474600480360381019061046f91906134f7565b610e26565b005b34801561048257600080fd5b5061048b610e46565b6040516104989190614b9c565b60405180910390f35b3480156104ad57600080fd5b506104c860048036038101906104c3919061375a565b610e4c565b005b3480156104d657600080fd5b506104f160048036038101906104ec919061375a565b610fb5565b6040516104fe9190614771565b60405180910390f35b34801561051357600080fd5b5061052e6004803603810190610529919061375a565b611067565b60405161053b91906148ba565b60405180910390f35b34801561055057600080fd5b5061056b60048036038101906105669190613492565b6111f3565b6040516105789190614b9c565b60405180910390f35b34801561058d57600080fd5b506105966112ab565b005b3480156105a457600080fd5b506105bf60048036038101906105ba9190613719565b611333565b6040516105cc91906148ba565b60405180910390f35b3480156105e157600080fd5b506105fc60048036038101906105f7919061375a565b611383565b6040516106099190614831565b60405180910390f35b34801561061e57600080fd5b5061062761149c565b6040516106349190614771565b60405180910390f35b34801561064957600080fd5b50610664600480360381019061065f9190613662565b6114c6565b60405161067191906148ba565b60405180910390f35b34801561068657600080fd5b506106a1600480360381019061069c919061368b565b61171f565b005b3480156106af57600080fd5b506106b86117bb565b6040516106c59190614b9c565b60405180910390f35b3480156106da57600080fd5b506106e36117c1565b6040516106f091906148ba565b60405180910390f35b34801561070557600080fd5b50610720600480360381019061071b9190613783565b611853565b005b34801561072e57600080fd5b506107496004803603810190610744919061375a565b6118ad565b6040516107569190614b9c565b60405180910390f35b34801561076b57600080fd5b50610786600480360381019061078191906135c1565b6118c5565b005b34801561079457600080fd5b506107af60048036038101906107aa9190613546565b6118db565b005b3480156107bd57600080fd5b506107d860048036038101906107d3919061375a565b61193d565b6040516107e591906148ba565b60405180910390f35b3480156107fa57600080fd5b506108156004803603810190610810919061375a565b611b46565b60405161082291906148ba565b60405180910390f35b34801561083757600080fd5b50610840611c98565b60405161084d9190614b9c565b60405180910390f35b34801561086257600080fd5b5061087d600480360381019061087891906134bb565b611c9e565b60405161088a9190614816565b60405180910390f35b34801561089f57600080fd5b506108ba60048036038101906108b591906137d2565b611d32565b6040516108c791906148ba565b60405180910390f35b3480156108dc57600080fd5b506108f760048036038101906108f29190613492565b611e0f565b005b60007f80ac58cd000000000000000000000000000000000000000000000000000000007bffffffffffffffffffffffffffffffffffffffffffffffffffffffff1916827bffffffffffffffffffffffffffffffffffffffffffffffffffffffff191614806109c457507f5b5e139f000000000000000000000000000000000000000000000000000000007bffffffffffffffffffffffffffffffffffffffffffffffffffffffff1916827bffffffffffffffffffffffffffffffffffffffffffffffffffffffff1916145b806109d457506109d382611f07565b5b9050919050565b6060600080546109ea90614ecd565b80601f0160208091040260200160405190810160405280929190818152602001828054610a1690614ecd565b8015610a635780601f10610a3857610100808354040283529160200191610a63565b820191906000526020600020905b815481529060010190602001808311610a4657829003601f168201915b5050505050905090565b6000610a7882611f71565b610ab7576040517f08c379a0000000000000000000000000000000000000000000000000000000008152600401610aae90614abc565b60405180910390fd5b6004600083815260200190815260200160002060009054906101000a900473ffffffffffffffffffffffffffffffffffffffff169050919050565b6000610afd82610fb5565b90508073ffffffffffffffffffffffffffffffffffffffff168373ffffffffffffffffffffffffffffffffffffffff161415610b6e576040517f08c379a0000000000000000000000000000000000000000000000000000000008152600401610b6590614b5c565b60405180910390fd5b8073ffffffffffffffffffffffffffffffffffffffff16610b8d611fdd565b73ffffffffffffffffffffffffffffffffffffffff161480610bbc5750610bbb81610bb6611fdd565b611c9e565b5b610bfb576040517f08c379a0000000000000000000000000000000000000000000000000000000008152600401610bf2906149dc565b60405180910390fd5b610c058383611fe5565b505050565b60125481565b60115481565b600a6020528060005260406000206000915054906101000a900473ffffffffffffffffffffffffffffffffffffffff1681565b600c6020528060005260406000206000915090505481565b610c72610c6c611fdd565b8261209e565b610cb1576040517f08c379a0000000000000000000000000000000000000000000000000000000008152600401610ca890614b7c565b60405180910390fd5b610cbc83838361217c565b505050565b606060006040518060400160405280601a81526020017f646174613a696d6167652f7376672b786d6c3b6261736536342c00000000000081525090506000610d2784604051602001610d139190614574565b6040516020818303038152906040526123d8565b90508181604051602001610d3c92919061458b565b60405160208183030381529060405292505050919050565b60135481565b610d62611fdd565b73ffffffffffffffffffffffffffffffffffffffff16610d8061149c565b73ffffffffffffffffffffffffffffffffffffffff1614610dd6576040517f08c379a0000000000000000000000000000000000000000000000000000000008152600401610dcd90614adc565b60405180910390fd5b610dde61149c565b73ffffffffffffffffffffffffffffffffffffffff166108fc479081150290604051600060405180830381858888f19350505050158015610e23573d6000803e3d6000fd5b50565b610e41838383604051806020016040528060008152506118db565b505050565b600f5481565b6000610e5782611b46565b511115610e99576040517f08c379a0000000000000000000000000000000000000000000000000000000008152600401610e909061499c565b60405180910390fd5b8060095411610edd576040517f08c379a0000000000000000000000000000000000000000000000000000000008152600401610ed490614a5c565b60405180910390fd5b6000600b60008381526020019081526020016000205411610f33576040517f08c379a0000000000000000000000000000000000000000000000000000000008152600401610f2a9061493c565b60405180910390fd5b6000600b60008381526020019081526020016000205490506000610f5682611067565b90506000610f6382610cc1565b9050610f7784610f7283611333565b612577565b837f15a6487b7915a7116ce2a61d43b17e9b47484b1931f3c79f2f3d139b307b389383604051610fa791906148ba565b60405180910390a250505050565b6000806002600084815260200190815260200160002060009054906101000a900473ffffffffffffffffffffffffffffffffffffffff169050600073ffffffffffffffffffffffffffffffffffffffff168173ffffffffffffffffffffffffffffffffffffffff16141561105e576040517f08c379a000000000000000000000000000000000000000000000000000000000815260040161105590614a1c565b60405180910390fd5b80915050919050565b606060008260405160200161107c9190614b9c565b6040516020818303038152906040528051906020012060001c90506000600160ff836110a89190614f86565b6110b29190614cb4565b90506000601490506000603290506110cb6010546125eb565b6110d66010546125eb565b6040516020016110e792919061468d565b604051602081830303815290604052945060005b60068110156111c75760008782604051602001611119929190614bb7565b6040516020818303038152906040528051906020012060001c9050600061114282878787611d32565b9050878160405160200161115792919061458b565b604051602081830303815290604052975060006002866111779190614cb4565b111561118d5760028561118a9190614dcc565b94505b600060058561119c9190614cb4565b11156111b2576005846111af9190614dcc565b93505b505080806111bf90614eff565b9150506110fb565b50846040516020016111d9919061466b565b604051602081830303815290604052945050505050919050565b60008073ffffffffffffffffffffffffffffffffffffffff168273ffffffffffffffffffffffffffffffffffffffff161415611264576040517f08c379a000000000000000000000000000000000000000000000000000000000815260040161125b906149fc565b60405180910390fd5b600360008373ffffffffffffffffffffffffffffffffffffffff1673ffffffffffffffffffffffffffffffffffffffff168152602001908152602001600020549050919050565b6112b3611fdd565b73ffffffffffffffffffffffffffffffffffffffff166112d161149c565b73ffffffffffffffffffffffffffffffffffffffff1614611327576040517f08c379a000000000000000000000000000000000000000000000000000000000815260040161131e90614adc565b60405180910390fd5b61133160006127c0565b565b606061135d8260405160200161134991906146f4565b6040516020818303038152906040526123d8565b60405160200161136d91906146d2565b6040516020818303038152906040529050919050565b6000611393600d54600e54612886565b90506000600954905060005b8381101561149557600083826040516020016113bc92919061484c565b60405160208183030381529060405280519060200120905033600a600083815260200190815260200160002060006101000a81548173ffffffffffffffffffffffffffffffffffffffff021916908373ffffffffffffffffffffffffffffffffffffffff16021790555082600c600083815260200190815260200160002081905550600160095461144d9190614cb4565b60098190555082817fb97343f1f2afc4959f818046ccae28fd7b05fcd2b7a7dc651cbb52a096cae03560405160405180910390a350808061148d90614eff565b91505061139f565b5050919050565b6000600860009054906101000a900473ffffffffffffffffffffffffffffffffffffffff16905090565b606060005b60208160ff161080156115435750600060f81b838260ff166020811061151a577f4e487b7100000000000000000000000000000000000000000000000000000000600052603260045260246000fd5b1a60f81b7effffffffffffffffffffffffffffffffffffffffffffffffffffffffffffff191614155b1561155b57808061155390614f48565b9150506114cb565b60008160ff1667ffffffffffffffff8111156115a0577f4e487b7100000000000000000000000000000000000000000000000000000000600052604160045260246000fd5b6040519080825280601f01601f1916602001820160405280156115d25781602001600182028036833780820191505090505b509050600091505b60208260ff161080156116525750600060f81b848360ff1660208110611629577f4e487b7100000000000000000000000000000000000000000000000000000000600052603260045260246000fd5b1a60f81b7effffffffffffffffffffffffffffffffffffffffffffffffffffffffffffff191614155b1561171557838260ff1660208110611693577f4e487b7100000000000000000000000000000000000000000000000000000000600052603260045260246000fd5b1a60f81b818360ff16815181106116d3577f4e487b7100000000000000000000000000000000000000000000000000000000600052603260045260246000fd5b60200101907effffffffffffffffffffffffffffffffffffffffffffffffffffffffffffff1916908160001a905350818061170d90614f48565b9250506115da565b8092505050919050565b7f000000000000000000000000000000000000000000000000000000000000000073ffffffffffffffffffffffffffffffffffffffff163373ffffffffffffffffffffffffffffffffffffffff16146117ad576040517f08c379a00000000000000000000000000000000000000000000000000000000081526004016117a490614b3c565b60405180910390fd5b6117b782826129e8565b5050565b60105481565b6060600180546117d090614ecd565b80601f01602080910402602001604051908101604052809291908181526020018280546117fc90614ecd565b80156118495780601f1061181e57610100808354040283529160200191611849565b820191906000526020600020905b81548152906001019060200180831161182c57829003601f168201915b5050505050905090565b61185d82846129f3565b600060135482604051602001611874929190614bb7565b6040516020818303038152906040528051906020012060001c905080600b60008681526020019081526020016000208190555050505050565b600b6020528060005260406000206000915090505481565b6118d76118d0611fdd565b8383612a11565b5050565b6118ec6118e6611fdd565b8361209e565b61192b576040517f08c379a000000000000000000000000000000000000000000000000000000000815260040161192290614b7c565b60405180910390fd5b61193784848484612b7e565b50505050565b6060600080600060115414801561195657506000601254145b15611a095760105484600160026010546119709190614d72565b61197a9190614cb4565b60405160200161198b929190614bb7565b6040516020818303038152906040528051906020012060001c6119ae9190614f86565b9150601054846002806010546119c49190614d72565b6119ce9190614cb4565b6040516020016119df929190614bb7565b6040516020818303038152906040528051906020012060001c611a029190614f86565b9050611a14565b601154915060125490505b60006010548560036002601054611a2b9190614d72565b611a359190614cb4565b604051602001611a46929190614bb7565b6040516020818303038152906040528051906020012060001c611a699190614f86565b905060006010548660046002601054611a829190614d72565b611a8c9190614cb4565b604051602001611a9d929190614bb7565b6040516020818303038152906040528051906020012060001c611ac09190614f86565b905081601181905550806012819055506000611adb856125eb565b611ae4856125eb565b604051602001611af5929190614721565b604051602081830303815290604052905080611b10846125eb565b611b19846125eb565b604051602001611b2b93929190614619565b60405160208183030381529060405295505050505050919050565b6060611b5182611f71565b611b90576040517f08c379a0000000000000000000000000000000000000000000000000000000008152600401611b8790614a9c565b60405180910390fd5b6000600660008481526020019081526020016000208054611bb090614ecd565b80601f0160208091040260200160405190810160405280929190818152602001828054611bdc90614ecd565b8015611c295780601f10611bfe57610100808354040283529160200191611c29565b820191906000526020600020905b815481529060010190602001808311611c0c57829003601f168201915b505050505090506000611c3a612bda565b9050600081511415611c50578192505050611c93565b600082511115611c85578082604051602001611c6d92919061458b565b60405160208183030381529060405292505050611c93565b611c8e84612bf1565b925050505b919050565b60095481565b6000600560008473ffffffffffffffffffffffffffffffffffffffff1673ffffffffffffffffffffffffffffffffffffffff16815260200190815260200160002060008373ffffffffffffffffffffffffffffffffffffffff1673ffffffffffffffffffffffffffffffffffffffff16815260200190815260200160002060009054906101000a900460ff16905092915050565b60606040518060400160405280600681526020017f3c6c696e6520000000000000000000000000000000000000000000000000000081525090506000611da086604051602001611d829190614b9c565b6040516020818303038152906040528051906020012060001c61193d565b90508181604051602001611db592919061458b565b604051602081830303815290604052915081611dd0866125eb565b611dd9856125eb565b611de2876125eb565b604051602001611df594939291906145af565b604051602081830303815290604052915050949350505050565b611e17611fdd565b73ffffffffffffffffffffffffffffffffffffffff16611e3561149c565b73ffffffffffffffffffffffffffffffffffffffff1614611e8b576040517f08c379a0000000000000000000000000000000000000000000000000000000008152600401611e8290614adc565b60405180910390fd5b600073ffffffffffffffffffffffffffffffffffffffff168173ffffffffffffffffffffffffffffffffffffffff161415611efb576040517f08c379a0000000000000000000000000000000000000000000000000000000008152600401611ef2906148fc565b60405180910390fd5b611f04816127c0565b50565b60007f01ffc9a7000000000000000000000000000000000000000000000000000000007bffffffffffffffffffffffffffffffffffffffffffffffffffffffff1916827bffffffffffffffffffffffffffffffffffffffffffffffffffffffff1916149050919050565b60008073ffffffffffffffffffffffffffffffffffffffff166002600084815260200190815260200160002060009054906101000a900473ffffffffffffffffffffffffffffffffffffffff1673ffffffffffffffffffffffffffffffffffffffff1614159050919050565b600033905090565b816004600083815260200190815260200160002060006101000a81548173ffffffffffffffffffffffffffffffffffffffff021916908373ffffffffffffffffffffffffffffffffffffffff160217905550808273ffffffffffffffffffffffffffffffffffffffff1661205883610fb5565b73ffffffffffffffffffffffffffffffffffffffff167f8c5be1e5ebec7d5bd14f71427d1e84f3dd0314c0f7b2291e5b200ac8c7c3b92560405160405180910390a45050565b60006120a982611f71565b6120e8576040517f08c379a00000000000000000000000000000000000000000000000000000000081526004016120df906149bc565b60405180910390fd5b60006120f383610fb5565b90508073ffffffffffffffffffffffffffffffffffffffff168473ffffffffffffffffffffffffffffffffffffffff16148061216257508373ffffffffffffffffffffffffffffffffffffffff1661214a84610a6d565b73ffffffffffffffffffffffffffffffffffffffff16145b8061217357506121728185611c9e565b5b91505092915050565b8273ffffffffffffffffffffffffffffffffffffffff1661219c82610fb5565b73ffffffffffffffffffffffffffffffffffffffff16146121f2576040517f08c379a00000000000000000000000000000000000000000000000000000000081526004016121e990614afc565b60405180910390fd5b600073ffffffffffffffffffffffffffffffffffffffff168273ffffffffffffffffffffffffffffffffffffffff161415612262576040517f08c379a00000000000000000000000000000000000000000000000000000000081526004016122599061495c565b60405180910390fd5b61226d838383612c98565b612278600082611fe5565b6001600360008573ffffffffffffffffffffffffffffffffffffffff1673ffffffffffffffffffffffffffffffffffffffff16815260200190815260200160002060008282546122c89190614dcc565b925050819055506001600360008473ffffffffffffffffffffffffffffffffffffffff1673ffffffffffffffffffffffffffffffffffffffff168152602001908152602001600020600082825461231f9190614cb4565b92505081905550816002600083815260200190815260200160002060006101000a81548173ffffffffffffffffffffffffffffffffffffffff021916908373ffffffffffffffffffffffffffffffffffffffff160217905550808273ffffffffffffffffffffffffffffffffffffffff168473ffffffffffffffffffffffffffffffffffffffff167fddf252ad1be2c89b69c2b068fc378daa952ba7f163c4a11628f55a4df523b3ef60405160405180910390a4505050565b60606000825114156123fb57604051806020016040528060008152509050612572565b60006040518060600160405280604081526020016150f8604091399050600060036002855161242a9190614cb4565b6124349190614d41565b60046124409190614d72565b905060006020826124519190614cb4565b67ffffffffffffffff811115612490577f4e487b7100000000000000000000000000000000000000000000000000000000600052604160045260246000fd5b6040519080825280601f01601f1916602001820160405280156124c25781602001600182028036833780820191505090505b509050818152600183018586518101602084015b81831015612531576003830192508251603f8160121c168501518253600182019150603f81600c1c168501518253600182019150603f8160061c168501518253600182019150603f81168501518253600182019150506124d6565b60038951066001811461254b576002811461255b57612566565b613d3d60f01b6002830352612566565b603d60f81b60018303525b50505050508093505050505b919050565b61258082611f71565b6125bf576040517f08c379a00000000000000000000000000000000000000000000000000000000081526004016125b690614a3c565b60405180910390fd5b806006600084815260200190815260200160002090805190602001906125e692919061328c565b505050565b60606000821415612633576040518060400160405280600181526020017f300000000000000000000000000000000000000000000000000000000000000081525090506127bb565b600082905060005b6000821461266557808061264e90614eff565b915050600a8261265e9190614d41565b915061263b565b60008167ffffffffffffffff8111156126a7577f4e487b7100000000000000000000000000000000000000000000000000000000600052604160045260246000fd5b6040519080825280601f01601f1916602001820160405280156126d95781602001600182028036833780820191505090505b50905060008290505b600086146127b3576001816126f79190614dcc565b90506000600a80886127099190614d41565b6127139190614d72565b8761271e9190614dcc565b603061272a9190614d0a565b905060008160f81b90508084848151811061276e577f4e487b7100000000000000000000000000000000000000000000000000000000600052603260045260246000fd5b60200101907effffffffffffffffffffffffffffffffffffffffffffffffffffffffffffff1916908160001a905350600a886127aa9190614d41565b975050506126e2565b819450505050505b919050565b6000600860009054906101000a900473ffffffffffffffffffffffffffffffffffffffff16905081600860006101000a81548173ffffffffffffffffffffffffffffffffffffffff021916908373ffffffffffffffffffffffffffffffffffffffff1602179055508173ffffffffffffffffffffffffffffffffffffffff168173ffffffffffffffffffffffffffffffffffffffff167f8be0079c531659141344cd1fd0a4f28419497f9722a3daafe3b4186f6b6457e060405160405180910390a35050565b60007f000000000000000000000000000000000000000000000000000000000000000073ffffffffffffffffffffffffffffffffffffffff16634000aea07f0000000000000000000000000000000000000000000000000000000000000000848660006040516020016128fa92919061484c565b6040516020818303038152906040526040518463ffffffff1660e01b8152600401612927939291906147d8565b602060405180830381600087803b15801561294157600080fd5b505af1158015612955573d6000803e3d6000fd5b505050506040513d601f19601f820116820180604052508101906129799190613639565b50600061299c846000306007600089815260200190815260200160002054612c9d565b9050600160076000868152602001908152602001600020546129be9190614cb4565b60076000868152602001908152602001600020819055506129df8482612cd9565b91505092915050565b806013819055505050565b612a0d828260405180602001604052806000815250612d0c565b5050565b8173ffffffffffffffffffffffffffffffffffffffff168373ffffffffffffffffffffffffffffffffffffffff161415612a80576040517f08c379a0000000000000000000000000000000000000000000000000000000008152600401612a779061497c565b60405180910390fd5b80600560008573ffffffffffffffffffffffffffffffffffffffff1673ffffffffffffffffffffffffffffffffffffffff16815260200190815260200160002060008473ffffffffffffffffffffffffffffffffffffffff1673ffffffffffffffffffffffffffffffffffffffff16815260200190815260200160002060006101000a81548160ff0219169083151502179055508173ffffffffffffffffffffffffffffffffffffffff168373ffffffffffffffffffffffffffffffffffffffff167f17307eab39ab6107e8899845ad3d59bd9653f200f220920489ca2b5937696c3183604051612b719190614816565b60405180910390a3505050565b612b8984848461217c565b612b9584848484612d67565b612bd4576040517f08c379a0000000000000000000000000000000000000000000000000000000008152600401612bcb906148dc565b60405180910390fd5b50505050565b606060405180602001604052806000815250905090565b6060612bfc82611f71565b612c3b576040517f08c379a0000000000000000000000000000000000000000000000000000000008152600401612c3290614b1c565b60405180910390fd5b6000612c45612bda565b90506000815111612c655760405180602001604052806000815250612c90565b80612c6f84612efe565b604051602001612c8092919061458b565b6040516020818303038152906040525b915050919050565b505050565b600084848484604051602001612cb69493929190614875565b6040516020818303038152906040528051906020012060001c9050949350505050565b60008282604051602001612cee929190614548565b60405160208183030381529060405280519060200120905092915050565b612d1683836130ab565b612d236000848484612d67565b612d62576040517f08c379a0000000000000000000000000000000000000000000000000000000008152600401612d59906148dc565b60405180910390fd5b505050565b6000612d888473ffffffffffffffffffffffffffffffffffffffff16613279565b15612ef1578373ffffffffffffffffffffffffffffffffffffffff1663150b7a02612db1611fdd565b8786866040518563ffffffff1660e01b8152600401612dd3949392919061478c565b602060405180830381600087803b158015612ded57600080fd5b505af1925050508015612e1e57506040513d601f19601f82011682018060405250810190612e1b91906136f0565b60015b612ea1573d8060008114612e4e576040519150601f19603f3d011682016040523d82523d6000602084013e612e53565b606091505b50600081511415612e99576040517f08c379a0000000000000000000000000000000000000000000000000000000008152600401612e90906148dc565b60405180910390fd5b805181602001fd5b63150b7a0260e01b7bffffffffffffffffffffffffffffffffffffffffffffffffffffffff1916817bffffffffffffffffffffffffffffffffffffffffffffffffffffffff191614915050612ef6565b600190505b949350505050565b60606000821415612f46576040518060400160405280600181526020017f300000000000000000000000000000000000000000000000000000000000000081525090506130a6565b600082905060005b60008214612f78578080612f6190614eff565b915050600a82612f719190614d41565b9150612f4e565b60008167ffffffffffffffff811115612fba577f4e487b7100000000000000000000000000000000000000000000000000000000600052604160045260246000fd5b6040519080825280601f01601f191660200182016040528015612fec5781602001600182028036833780820191505090505b5090505b6000851461309f576001826130059190614dcc565b9150600a856130149190614f86565b60306130209190614cb4565b60f81b81838151811061305c577f4e487b7100000000000000000000000000000000000000000000000000000000600052603260045260246000fd5b60200101907effffffffffffffffffffffffffffffffffffffffffffffffffffffffffffff1916908160001a905350600a856130989190614d41565b9450612ff0565b8093505050505b919050565b600073ffffffffffffffffffffffffffffffffffffffff168273ffffffffffffffffffffffffffffffffffffffff16141561311b576040517f08c379a000000000000000000000000000000000000000000000000000000000815260040161311290614a7c565b60405180910390fd5b61312481611f71565b15613164576040517f08c379a000000000000000000000000000000000000000000000000000000000815260040161315b9061491c565b60405180910390fd5b61317060008383612c98565b6001600360008473ffffffffffffffffffffffffffffffffffffffff1673ffffffffffffffffffffffffffffffffffffffff16815260200190815260200160002060008282546131c09190614cb4565b92505081905550816002600083815260200190815260200160002060006101000a81548173ffffffffffffffffffffffffffffffffffffffff021916908373ffffffffffffffffffffffffffffffffffffffff160217905550808273ffffffffffffffffffffffffffffffffffffffff16600073ffffffffffffffffffffffffffffffffffffffff167fddf252ad1be2c89b69c2b068fc378daa952ba7f163c4a11628f55a4df523b3ef60405160405180910390a45050565b600080823b905060008111915050919050565b82805461329890614ecd565b90600052602060002090601f0160209004810192826132ba5760008555613301565b82601f106132d357805160ff1916838001178555613301565b82800160010185558215613301579182015b828111156133005782518255916020019190600101906132e5565b5b50905061330e9190613312565b5090565b5b8082111561332b576000816000905550600101613313565b5090565b600061334261333d84614c11565b614be0565b90508281526020810184848401111561335a57600080fd5b613365848285614e8b565b509392505050565b600061338061337b84614c41565b614be0565b90508281526020810184848401111561339857600080fd5b6133a3848285614e8b565b509392505050565b6000813590506133ba81615084565b92915050565b6000813590506133cf8161509b565b92915050565b6000815190506133e48161509b565b92915050565b6000813590506133f9816150b2565b92915050565b60008135905061340e816150c9565b92915050565b600081519050613423816150c9565b92915050565b600082601f83011261343a57600080fd5b813561344a84826020860161332f565b91505092915050565b600082601f83011261346457600080fd5b813561347484826020860161336d565b91505092915050565b60008135905061348c816150e0565b92915050565b6000602082840312156134a457600080fd5b60006134b2848285016133ab565b91505092915050565b600080604083850312156134ce57600080fd5b60006134dc858286016133ab565b92505060206134ed858286016133ab565b9150509250929050565b60008060006060848603121561350c57600080fd5b600061351a868287016133ab565b935050602061352b868287016133ab565b925050604061353c8682870161347d565b9150509250925092565b6000806000806080858703121561355c57600080fd5b600061356a878288016133ab565b945050602061357b878288016133ab565b935050604061358c8782880161347d565b925050606085013567ffffffffffffffff8111156135a957600080fd5b6135b587828801613429565b91505092959194509250565b600080604083850312156135d457600080fd5b60006135e2858286016133ab565b92505060206135f3858286016133c0565b9150509250929050565b6000806040838503121561361057600080fd5b600061361e858286016133ab565b925050602061362f8582860161347d565b9150509250929050565b60006020828403121561364b57600080fd5b6000613659848285016133d5565b91505092915050565b60006020828403121561367457600080fd5b6000613682848285016133ea565b91505092915050565b6000806040838503121561369e57600080fd5b60006136ac858286016133ea565b92505060206136bd8582860161347d565b9150509250929050565b6000602082840312156136d957600080fd5b60006136e7848285016133ff565b91505092915050565b60006020828403121561370257600080fd5b600061371084828501613414565b91505092915050565b60006020828403121561372b57600080fd5b600082013567ffffffffffffffff81111561374557600080fd5b61375184828501613453565b91505092915050565b60006020828403121561376c57600080fd5b600061377a8482850161347d565b91505092915050565b60008060006060848603121561379857600080fd5b60006137a68682870161347d565b93505060206137b7868287016133ab565b92505060406137c88682870161347d565b9150509250925092565b600080600080608085870312156137e857600080fd5b60006137f68782880161347d565b94505060206138078782880161347d565b93505060406138188782880161347d565b92505060606138298782880161347d565b91505092959194509250565b61383e81614e00565b82525050565b61384d81614e12565b82525050565b61385c81614e1e565b82525050565b61387361386e82614e1e565b614f72565b82525050565b600061388482614c71565b61388e8185614c87565b935061389e818560208601614e9a565b6138a781615073565b840191505092915050565b60006138bd82614c7c565b6138c78185614c98565b93506138d7818560208601614e9a565b6138e081615073565b840191505092915050565b60006138f682614c7c565b6139008185614ca9565b9350613910818560208601614e9a565b80840191505092915050565b6000613929600483614ca9565b91507f79313d27000000000000000000000000000000000000000000000000000000006000830152600482019050919050565b6000613969603283614c98565b91507f4552433732313a207472616e7366657220746f206e6f6e20455243373231526560008301527f63656976657220696d706c656d656e74657200000000000000000000000000006020830152604082019050919050565b60006139cf602683614c98565b91507f4f776e61626c653a206e6577206f776e657220697320746865207a65726f206160008301527f64647265737300000000000000000000000000000000000000000000000000006020830152604082019050919050565b6000613a35601c83614c98565b91507f4552433732313a20746f6b656e20616c7265616479206d696e746564000000006000830152602082019050919050565b6000613a75600783614ca9565b91507f2c20313030252c000000000000000000000000000000000000000000000000006000830152600782019050919050565b6000613ab5601183614ca9565b91507f25293b207374726f6b652d77696474683a0000000000000000000000000000006000830152601182019050919050565b6000613af5602f83614c98565b91507f4e65656420746f207761697420666f722074686520436861696e6c696e6b206e60008301527f6f646520746f20726573706f6e642100000000000000000000000000000000006020830152604082019050919050565b6000613b5b602483614c98565b91507f4552433732313a207472616e7366657220746f20746865207a65726f2061646460008301527f72657373000000000000000000000000000000000000000000000000000000006020830152604082019050919050565b6000613bc1601983614c98565b91507f4552433732313a20617070726f766520746f2063616c6c6572000000000000006000830152602082019050919050565b6000613c01601383614ca9565b91507f207374796c653d277374726f6b653a68736c28000000000000000000000000006000830152601382019050919050565b6000613c41602283614ca9565b91507f27207374796c653d276261636b67726f756e642d636f6c6f723a626c61636b2760008301527f203e0000000000000000000000000000000000000000000000000000000000006020830152602282019050919050565b6000613ca7601883614c98565b91507f746f6b656e55524920697320616c7265616479207365742100000000000000006000830152602082019050919050565b6000613ce7600683614ca9565b91507f272079323d2700000000000000000000000000000000000000000000000000006000830152600682019050919050565b6000613d27602c83614c98565b91507f4552433732313a206f70657261746f7220717565727920666f72206e6f6e657860008301527f697374656e7420746f6b656e00000000000000000000000000000000000000006020830152604082019050919050565b6000613d8d603883614c98565b91507f4552433732313a20617070726f76652063616c6c6572206973206e6f74206f7760008301527f6e6572206e6f7220617070726f76656420666f7220616c6c00000000000000006020830152604082019050919050565b6000613df3602a83614c98565b91507f4552433732313a2062616c616e636520717565727920666f7220746865207a6560008301527f726f2061646472657373000000000000000000000000000000000000000000006020830152604082019050919050565b6000613e59602983614c98565b91507f4552433732313a206f776e657220717565727920666f72206e6f6e657869737460008301527f656e7420746f6b656e00000000000000000000000000000000000000000000006020830152604082019050919050565b6000613ebf602e83614c98565b91507f45524337323155524953746f726167653a2055524920736574206f66206e6f6e60008301527f6578697374656e7420746f6b656e0000000000000000000000000000000000006020830152604082019050919050565b6000613f25602083614c98565b91507f546f6b656e496420686173206e6f74206265656e206d696e74656420796574216000830152602082019050919050565b6000613f65600483614ca9565b91507f78323d27000000000000000000000000000000000000000000000000000000006000830152600482019050919050565b6000613fa5600283614ca9565b91507f227d0000000000000000000000000000000000000000000000000000000000006000830152600282019050919050565b6000613fe5602083614c98565b91507f4552433732313a206d696e7420746f20746865207a65726f20616464726573736000830152602082019050919050565b6000614025603183614c98565b91507f45524337323155524953746f726167653a2055524920717565727920666f722060008301527f6e6f6e6578697374656e7420746f6b656e0000000000000000000000000000006020830152604082019050919050565b600061408b602c83614c98565b91507f4552433732313a20617070726f76656420717565727920666f72206e6f6e657860008301527f697374656e7420746f6b656e00000000000000000000000000000000000000006020830152604082019050919050565b60006140f1602083614c98565b91507f4f776e61626c653a2063616c6c6572206973206e6f7420746865206f776e65726000830152602082019050919050565b6000614131602983614c98565b91507f4552433732313a207472616e73666572206f6620746f6b656e2074686174206960008301527f73206e6f74206f776e00000000000000000000000000000000000000000000006020830152604082019050919050565b6000614197603083614ca9565b91507f3c73766720786d6c6e733d27687474703a2f2f7777772e77332e6f72672f323060008301527f30302f73766727206865696768743d27000000000000000000000000000000006020830152603082019050919050565b60006141fd602f83614c98565b91507f4552433732314d657461646174613a2055524920717565727920666f72206e6f60008301527f6e6578697374656e7420746f6b656e00000000000000000000000000000000006020830152604082019050919050565b6000614263601f83614c98565b91507f4f6e6c7920565246436f6f7264696e61746f722063616e2066756c66696c6c006000830152602082019050919050565b60006142a3602183614c98565b91507f4552433732313a20617070726f76616c20746f2063757272656e74206f776e6560008301527f72000000000000000000000000000000000000000000000000000000000000006020830152604082019050919050565b6000614309601d83614ca9565b91507f646174613a6170706c69636174696f6e2f6a736f6e3b6261736536342c0000006000830152601d82019050919050565b6000614349603183614c98565b91507f4552433732313a207472616e736665722063616c6c6572206973206e6f74206f60008301527f776e6572206e6f7220617070726f7665640000000000000000000000000000006020830152604082019050919050565b60006143af600483614ca9565b91507f27202f3e000000000000000000000000000000000000000000000000000000006000830152600482019050919050565b60006143ef600a83614ca9565b91507f7b22696d616765223a22000000000000000000000000000000000000000000006000830152600a82019050919050565b600061442f600283614ca9565b91507f27200000000000000000000000000000000000000000000000000000000000006000830152600282019050919050565b600061446f600683614ca9565b91507f3c2f7376673e00000000000000000000000000000000000000000000000000006000830152600682019050919050565b60006144af600983614ca9565b91507f272077696474683d2700000000000000000000000000000000000000000000006000830152600982019050919050565b60006144ef600483614ca9565b91507f78313d27000000000000000000000000000000000000000000000000000000006000830152600482019050919050565b61452b81614e74565b82525050565b61454261453d82614e74565b614f7c565b82525050565b60006145548285613862565b6020820191506145648284614531565b6020820191508190509392505050565b600061458082846138eb565b915081905092915050565b600061459782856138eb565b91506145a382846138eb565b91508190509392505050565b60006145bb82876138eb565b91506145c682613bf4565b91506145d282866138eb565b91506145dd82613a68565b91506145e982856138eb565b91506145f482613aa8565b915061460082846138eb565b915061460b826143a2565b915081905095945050505050565b600061462582866138eb565b915061463082613f58565b915061463c82856138eb565b915061464782613cda565b915061465382846138eb565b915061465e82614422565b9150819050949350505050565b600061467782846138eb565b915061468282614462565b915081905092915050565b60006146988261418a565b91506146a482856138eb565b91506146af826144a2565b91506146bb82846138eb565b91506146c682613c34565b91508190509392505050565b60006146dd826142fc565b91506146e982846138eb565b915081905092915050565b60006146ff826143e2565b915061470b82846138eb565b915061471682613f98565b915081905092915050565b600061472c826144e2565b915061473882856138eb565b915061474382614422565b915061474e8261391c565b915061475a82846138eb565b915061476582614422565b91508190509392505050565b60006020820190506147866000830184613835565b92915050565b60006080820190506147a16000830187613835565b6147ae6020830186613835565b6147bb6040830185614522565b81810360608301526147cd8184613879565b905095945050505050565b60006060820190506147ed6000830186613835565b6147fa6020830185614522565b818103604083015261480c8184613879565b9050949350505050565b600060208201905061482b6000830184613844565b92915050565b60006020820190506148466000830184613853565b92915050565b60006040820190506148616000830185613853565b61486e6020830184614522565b9392505050565b600060808201905061488a6000830187613853565b6148976020830186614522565b6148a46040830185613835565b6148b16060830184614522565b95945050505050565b600060208201905081810360008301526148d481846138b2565b905092915050565b600060208201905081810360008301526148f58161395c565b9050919050565b60006020820190508181036000830152614915816139c2565b9050919050565b6000602082019050818103600083015261493581613a28565b9050919050565b6000602082019050818103600083015261495581613ae8565b9050919050565b6000602082019050818103600083015261497581613b4e565b9050919050565b6000602082019050818103600083015261499581613bb4565b9050919050565b600060208201905081810360008301526149b581613c9a565b9050919050565b600060208201905081810360008301526149d581613d1a565b9050919050565b600060208201905081810360008301526149f581613d80565b9050919050565b60006020820190508181036000830152614a1581613de6565b9050919050565b60006020820190508181036000830152614a3581613e4c565b9050919050565b60006020820190508181036000830152614a5581613eb2565b9050919050565b60006020820190508181036000830152614a7581613f18565b9050919050565b60006020820190508181036000830152614a9581613fd8565b9050919050565b60006020820190508181036000830152614ab581614018565b9050919050565b60006020820190508181036000830152614ad58161407e565b9050919050565b60006020820190508181036000830152614af5816140e4565b9050919050565b60006020820190508181036000830152614b1581614124565b9050919050565b60006020820190508181036000830152614b35816141f0565b9050919050565b60006020820190508181036000830152614b5581614256565b9050919050565b60006020820190508181036000830152614b7581614296565b9050919050565b60006020820190508181036000830152614b958161433c565b9050919050565b6000602082019050614bb16000830184614522565b92915050565b6000604082019050614bcc6000830185614522565b614bd96020830184614522565b9392505050565b6000604051905081810181811067ffffffffffffffff82111715614c0757614c06615044565b5b8060405250919050565b600067ffffffffffffffff821115614c2c57614c2b615044565b5b601f19601f8301169050602081019050919050565b600067ffffffffffffffff821115614c5c57614c5b615044565b5b601f19601f8301169050602081019050919050565b600081519050919050565b600081519050919050565b600082825260208201905092915050565b600082825260208201905092915050565b600081905092915050565b6000614cbf82614e74565b9150614cca83614e74565b9250827fffffffffffffffffffffffffffffffffffffffffffffffffffffffffffffffff03821115614cff57614cfe614fb7565b5b828201905092915050565b6000614d1582614e7e565b9150614d2083614e7e565b92508260ff03821115614d3657614d35614fb7565b5b828201905092915050565b6000614d4c82614e74565b9150614d5783614e74565b925082614d6757614d66614fe6565b5b828204905092915050565b6000614d7d82614e74565b9150614d8883614e74565b9250817fffffffffffffffffffffffffffffffffffffffffffffffffffffffffffffffff0483118215151615614dc157614dc0614fb7565b5b828202905092915050565b6000614dd782614e74565b9150614de283614e74565b925082821015614df557614df4614fb7565b5b828203905092915050565b6000614e0b82614e54565b9050919050565b60008115159050919050565b6000819050919050565b60007fffffffff0000000000000000000000000000000000000000000000000000000082169050919050565b600073ffffffffffffffffffffffffffffffffffffffff82169050919050565b6000819050919050565b600060ff82169050919050565b82818337600083830152505050565b60005b83811015614eb8578082015181840152602081019050614e9d565b83811115614ec7576000848401525b50505050565b60006002820490506001821680614ee557607f821691505b60208210811415614ef957614ef8615015565b5b50919050565b6000614f0a82614e74565b91507fffffffffffffffffffffffffffffffffffffffffffffffffffffffffffffffff821415614f3d57614f3c614fb7565b5b600182019050919050565b6000614f5382614e7e565b915060ff821415614f6757614f66614fb7565b5b600182019050919050565b6000819050919050565b6000819050919050565b6000614f9182614e74565b9150614f9c83614e74565b925082614fac57614fab614fe6565b5b828206905092915050565b7f4e487b7100000000000000000000000000000000000000000000000000000000600052601160045260246000fd5b7f4e487b7100000000000000000000000000000000000000000000000000000000600052601260045260246000fd5b7f4e487b7100000000000000000000000000000000000000000000000000000000600052602260045260246000fd5b7f4e487b7100000000000000000000000000000000000000000000000000000000600052604160045260246000fd5b6000601f19601f8301169050919050565b61508d81614e00565b811461509857600080fd5b50565b6150a481614e12565b81146150af57600080fd5b50565b6150bb81614e1e565b81146150c657600080fd5b50565b6150d281614e28565b81146150dd57600080fd5b50565b6150e981614e74565b81146150f457600080fd5b5056fe4142434445464748494a4b4c4d4e4f505152535455565758595a6162636465666768696a6b6c6d6e6f707172737475767778797a303132333435363738392b2fa2646970667358221220aa0f5514effcf05ae95c175eefa97a57e9f6ff4b238874e4c137bd2711cd4ad064736f6c63430008000033",
  "linkReferences": {},
  "deployedLinkReferences": {}
}